:020000040800F2
:1000000000000220E16B0008D1650008D3650008FC
:10001000D5650008D7650008D96500080000000014
:10002000000000000000000000000000DB65000888
:10003000DD65000800000000DF650008E1650008DC
:10004000316C0008316C0008316C0008316C00081C
:10005000316C0008316C0008316C0008316C00080C
:10006000316C0008316C0008316C0008316C0008FC
:10007000316C0008316C0008316C0008316C0008EC
:10008000316C0008316C0008316C0008316C0008DC
:10009000E9650008316C0008316C0008316C00081B
:1000A000316C0008316C0008316C0008316C0008BC
:1000B000316C0008316C0008316C0008316C0008AC
:1000C000316C0008316C0008316C0008316C00089C
:1000D000316C0008316C0008316C0008316C00088C
:1000E000316C0008316C0008316C0008316C00087C
:1000F000316C0008316C0008316C0008316C00086C
:10010000316C0008316C0008316C0008316C00085B
:10011000316C0008316C0008316C0008316C00084B
:10012000316C0008316C0008316C0008316C00083B
:10013000316C0008316C0008316C0008316C00082B
:10014000316C0008316C0008316C0008F96500085A
:10015000316C0008316C0008316C0008316C00080B
:10016000316C0008316C0008316C0008316C0008FB
:10017000316C0008316C0008316C00080000000090
:08018000316C0008316C00082D
:1001900010B5054C237833B9044B13B10448AFF3C1
:1001A00000800123237010BDAC0800200000000077
:1001B0001816010808B5034B1BB103490348AFF3F8
:1001C000008008BD00000000B008002018160108DB
:1001D00081F0004102E000BF83F0004330B54FEAF8
:1001E00041044FEA430594EA050F08BF90EA020F65
:1001F0001FBF54EA000C55EA020C7FEA645C7FEAF8
:10020000655C00F0E2804FEA5454D4EB5555B8BF1A
:100210006D420CDD2C4480EA020281EA030382EA8B
:10022000000083EA010180EA020281EA0303362D1D
:1002300088BF30BD11F0004F4FEA01314FF4801CF0
:100240004CEA113102D0404261EB410113F0004F02
:100250004FEA03334CEA133302D0524263EB4303B9
:1002600094EA050F00F0A780A4F10104D5F1200E57
:100270000DDB02FA0EFC22FA05F2801841F10001B2
:1002800003FA0EF2801843FA05F359410EE0A5F186
:1002900020050EF1200E012A03FA0EFC28BF4CF0B7
:1002A000020C43FA05F3C01851EBE37101F000456D
:1002B00007D54FF0000EDCF1000C7EEB00006EEB7A
:1002C0000101B1F5801F1BD3B1F5001F0CD3490804
:1002D0005FEA30004FEA3C0C04F101044FEA44525B
:1002E00012F5800F80F09A80BCF1004F08BF5FEAE2
:1002F000500C50F1000041EB045141EA050130BDC2
:100300005FEA4C0C404141EB0101013C28BFB1F5D3
:10031000801FE9D291F0000F04BF01460020B1FA1E
:1003200081F308BF2033A3F10B03B3F120020CDAF1
:100330000C3208DD02F1140CC2F10C0201FA0CF0CF
:1003400021FA02F10CE002F11402D8BFC2F1200C34
:1003500001FA02F120FA0CFCDCBF41EA0C019040EA
:10036000E41AA2BF01EB0451294330BD6FEA040433
:100370001F3C1CDA0C340EDC04F11404C4F120021E
:1003800020FA04F001FA02F340EA030021FA04F330
:1003900045EA030130BDC4F10C04C4F1200220FA87
:1003A00002F001FA04F340EA0300294630BD21FAC5
:1003B00004F0294630BD94F0000F83F4801306BF8B
:1003C00081F480110134013D4EE77FEA645C18BF7F
:1003D0007FEA655C29D094EA050F08BF90EA020F16
:1003E00005D054EA000C04BF1946104630BD91EA0E
:1003F000030F1EBF0021002030BD5FEA545C05D111
:100400004000494128BF41F0004130BD14F580044F
:100410003CBF01F5801130BD01F0004545F0FE41C3
:1004200041F470014FF0000030BD7FEA645C1ABFF8
:10043000194610467FEA655C1CBF0B46024650EA2F
:10044000013406BF52EA033591EA030F41F400215B
:1004500030BD00BF90F0000F04BF0021704730B5E1
:100460004FF4806404F132044FF000054FF00001B6
:1004700050E700BF90F0000F04BF0021704730B577
:100480004FF4806404F1320410F0004548BF40424C
:100490004FF000013EE700BF42004FEAE2014FEAA1
:1004A00031014FEA02701FBF12F07F4393F07F4F7C
:1004B00081F06051704732F07F4208BF704793F07F
:1004C0007F4F04BF41F40021704730B54FF4607492
:1004D00001F0004521F000411CE700BF50EA010295
:1004E00008BF704730B54FF000050AE050EA01023E
:1004F00008BF704730B511F0004502D5404261EBAE
:1005000041014FF4806404F132045FEA915C3FF4EE
:10051000D8AE4FF003025FEADC0C18BF03325FEA8B
:10052000DC0C18BF033202EBDC02C2F1200300FA3C
:1005300003FC20FA02F001FA03FE40EA0E0021FA61
:1005400002F11444BDE600BF80F0004002E000BFAD
:1005500081F0004142001FBF5FEA410392EA030FAE
:100560007FEA226C7FEA236C6AD04FEA1262D2EBF8
:100570001363C1BFD218414048404140B8BF5B42FD
:10058000192B88BF704710F0004F40F4000020F096
:100590007F4018BF404211F0004F41F4000121F0AC
:1005A0007F4118BF494292EA030F3FD0A2F10102F6
:1005B00041FA03FC10EB0C00C3F1200301FA03F134
:1005C00000F0004302D5494260EB4000B0F5000F57
:1005D00013D3B0F1807F06D340084FEA310102F116
:1005E0000102FE2A51D2B1F1004F40EBC25008BFC8
:1005F00020F0010040EA03007047490040EB000092
:10060000013A28BFB0F5000FEDD2B0FA80FCACF192
:10061000080CB2EB0C0200FA0CF0AABF00EBC250BF
:1006200052421843BCBFD0401843704792F0000FAD
:1006300081F4000106BF80F400000132013BB5E700
:100640004FEA41037FEA226C18BF7FEA236C21D076
:1006500092EA030F04D092F0000F08BF08467047DB
:1006600090EA010F1CBF0020704712F07F4F04D1A9
:10067000400028BF40F00040704712F100723CBFBC
:1006800000F50000704700F0004343F0FE4040F4E6
:10069000000070477FEA226216BF08467FEA2363A4
:1006A0000146420206BF5FEA412390EA010F40F48F
:1006B000800070474FF0000304E000BF10F00043DB
:1006C00048BF40425FEA000C08BF704743F09643C2
:1006D00001464FF000001CE050EA010208BF7047DD
:1006E0004FF000030AE000BF50EA010208BF704764
:1006F00011F0004302D5404261EB41015FEA010C79
:1007000002BF84460146002043F0B64308BFA3F170
:100710008053A3F50003BCFA8CF2083AA3EBC25352
:1007200010DB01FA02FC634400FA02FCC2F1200271
:10073000BCF1004F20FA02F243EB020008BF20F0A8
:100740000100704702F1200201FA02FCC2F120020E
:1007500050EA4C0021FA02F243EB020008BF20EA03
:10076000DC7070474FF0FF0C1CEAD0521EBF1CEA31
:10077000D15392EA0C0F93EA0C0F6FD01A4480EA1F
:10078000010C400218BF5FEA41211ED04FF0006308
:1007900043EA501043EA5111A0FB01310CF0004034
:1007A000B1F5000F3EBF490041EAD3715B0040EA5A
:1007B000010062F17F02FD2A1DD8B3F1004F40EB2A
:1007C000C25008BF20F00100704790F0000F0CF0FD
:1007D000004C08BF49024CEA502040EA51207F3AC1
:1007E000C2BFD2F1FF0340EAC250704740F400009C
:1007F0004FF00003013A5DDC12F1190FDCBF00F08D
:1008000000407047C2F10002410021FA02F1C2F13A
:10081000200200FA02FC5FEA310040F1000053EAD6
:100820004C0308BF20EADC70704792F0000F00F024
:10083000004C02BF400010F4000F013AF9D040EA2A
:100840000C0093F0000F01F0004C02BF490011F4BE
:10085000000F013BF9D041EA0C018FE70CEAD153BC
:1008600092EA0C0F18BF93EA0C0F0AD030F0004C3C
:1008700018BF31F0004CD8D180EA010000F00040F0
:10088000704790F0000F17BF90F0004F084691F0AE
:10089000000F91F0004F14D092EA0C0F01D14202E8
:1008A0000FD193EA0C0F03D14B0218BF084608D1B1
:1008B00080EA010000F0004040F0FE4040F40000FB
:1008C000704740F0FE4040F4400070474FF0FF0C8E
:1008D0001CEAD0521EBF1CEAD15392EA0C0F93EAD5
:1008E0000C0F69D0A2EB030280EA010C49024FEA27
:1008F000402037D04FF0805343EA111143EA1013E0
:100900000CF000408B4238BF5B0042F17D024FF497
:10091000000C8B4224BF5B1A40EA0C00B3EB510F72
:1009200024BFA3EB510340EA5C00B3EB910F24BF5B
:10093000A3EB910340EA9C00B3EBD10F24BFA3EBE0
:10094000D10340EADC001B0118BF5FEA1C1CE0D1A8
:10095000FD2A3FF650AF8B4240EBC25008BF20F05B
:10096000010070470CF0004C4CEA50207F32C2BFAF
:10097000D2F1FF0340EAC250704740F400004FF04C
:100980000003013A37E792F0000F00F0004C02BF7D
:10099000400010F4000F013AF9D040EA0C0093F047
:1009A000000F01F0004C02BF490011F4000F013BA1
:1009B000F9D041EA0C0195E70CEAD15392EA0C0F09
:1009C00008D142027FF47DAF93EA0C0F7FF470AF41
:1009D000084676E793EA0C0F04D14B023FF44CAF84
:1009E00008466EE730F0004C18BF31F0004CCAD119
:1009F00030F000427FF45CAF31F000437FF43CAF55
:100A00005FE700BF4FF0FF3C06E000BF4FF0010C76
:100A100002E000BF4FF0010C4DF804CD4FEA400258
:100A20004FEA41037FEA226C18BF7FEA236C11D0A2
:100A300001B052EA530C18BF90EA010F58BFB2EB55
:100A4000030088BFC81738BF6FEAE17018BF40F0D5
:100A5000010070477FEA226C02D15FEA402C05D189
:100A60007FEA236CE4D15FEA412CE1D05DF8040B0E
:100A7000704700BF844608466146FFE70FB5FFF7A1
:100A8000C9FF002848BF10F1000F0FBD4DF808ED59
:100A9000FFF7F4FF0CBF012000205DF808FB00BF4A
:100AA0004DF808EDFFF7EAFF34BF012000205DF8A4
:100AB00008FB00BF4DF808EDFFF7E0FF94BF0120F1
:100AC00000205DF808FB00BF4DF808EDFFF7D2FFEE
:100AD00094BF012000205DF808FB00BF4DF808ED31
:100AE000FFF7C8FF34BF012000205DF808FB00BFFE
:100AF0004FEA4002B2F1FE4F0FD34FF09E03B3EB2B
:100B000012620DD94FEA002343F0004310F0004F6A
:100B100023FA02F018BF404270474FF000007047C0
:100B200012F1610F01D1420205D110F0004008BF5F
:100B30006FF0004070474FF00000704742000ED247
:100B4000B2F1FE4F0BD34FF09E03B3EB126209D408
:100B50004FEA002343F0004323FA02F070474FF0BE
:100B60000000704712F1610F01D1420202D14FF033
:100B7000FF3070474FF00000704700BF53B94AB9CB
:100B8000002908BF00281CBF4FF0FF314FF0FF3095
:100B900000F06AB9ADF1080C6DE904CE00F006F87A
:100BA000DDF804E0DDE9022304B070472DE9F047E9
:100BB000089D0C46002B4ED194468C458646B2FAD1
:100BC00082F262D94AB1C2F12003914020FA03F3C4
:100BD0000CFA02FC194300FA02FE4FEA1C471FFA06
:100BE0008CF6B1FBF7F44FEA1E4307FB141143EAFE
:100BF000014304FB06F199420AD91CEB030304F1FB
:100C0000FF3080F01281994240F20F81023C634430
:100C1000591A1FFA8EF3B1FBF7F007FB101143EAE4
:100C2000014300FB06F69E420AD91CEB030300F1C8
:100C3000FF3180F0FC809E4240F2F980634402382C
:100C40009B1B40EA044000211DB1D3400022C5E9AE
:100C50000032BDE8F0878B4205D90DB1C5E900012E
:100C600000210846F5E7B3FA83F1002946D1A342F3
:100C700002D39042C0F0F080861A64EB0303012097
:100C8000002DE6D0C5E90063E3E7002A40F090803C
:100C9000A1EB0C044FEA1C481FFA8CF70121B4FBAE
:100CA000F8F64FEA1E4308FB164443EA044307FBE9
:100CB00006F0984208D91CEB030306F1FF3402D278
:100CC000984200F2CD8026461C1A1FFA8EF3B4FB20
:100CD000F8F008FB104443EA044300FB07F79F4287
:100CE00008D91CEB030300F1FF3402D29F4200F24B
:100CF000B0802046DB1B40EA0640A5E7C1F1200694
:100D00008B4022FA06F71F4320FA06FC04FA01F38F
:100D100043EA0C03F44000FA01F8380C4FEA134997
:100D2000B4FBF0FE1FFA87FC00FB1E4449EA0444B2
:100D30000EFB0CF9A14502FA01F20AD93C190EF199
:100D4000FF3A80F08480A14540F28180AEF1020E2E
:100D50003C44A4EB09041FFA83F9B4FBF0F300FB55
:100D6000134449EA044403FB0CFCA44507D93C198D
:100D700003F1FF3067D2A44565D9023B3C4443EA06
:100D80000E40A0FB0293A4EB0C049C42CE469C4672
:100D900051D34ED055B1B8EB0E0364EB0C0404FAFA
:100DA00006F6CB401E43CC40C5E90064002150E765
:100DB000C2F1200320FA03F10CFA02FC24FA03F337
:100DC00094400C434FEA1C4800FA02FE1FFA8CF7CD
:100DD000B3FBF8F008FB1031230C43EA014300FB9E
:100DE00007F1994208D91CEB030300F1FF362CD21E
:100DF00099422AD9023863445B1AA4B2B3FBF8F1D2
:100E000008FB113344EA034401FB07F3A34208D96A
:100E10001CEB040401F1FF3613D2A34211D90239AD
:100E20006444E41A41EA004139E70446F0E6084622
:100E300006E7C845AED2B9EB020E63EB070C0138EA
:100E4000A8E73146EDE7034699E73046D4E7D646B2
:100E50007FE7634402384DE70646234608460FE71E
:100E6000023E634430E700BF704700BF10F8012B1B
:100E700011F8013B012A28BF9A42F7D0D01A7047D7
:100E8000034613F8012B002AFBD1181A01387047CA
:100E900001F0FF01102A2BDB10F0070F08D010F82B
:100EA000013B013A8B422DD010F0070F42B3F6D12F
:100EB000F0B441EA012141EA014122F007047FF048
:100EC00000070023F0E80256083C85EA010586EA9F
:100ED000010685FA47F5A3FA87F586FA47F6A5FADB
:100EE00087F68EB9EED1F0BC01F0FF0102F00702E7
:100EF00032B110F8013B013A83EA010313B1F8D192
:100F00000020704701387047002D06BF3546033872
:100F1000073815F0010F07D1013015F4807F02BFAB
:100F2000013015F4C03F0130F0BC0138704700BFFC
:100F300070B54FF0FF0C4CF4E06C1CEA11541DBF6F
:100F40001CEA135594EA0C0F95EA0C0F00F0DEF83A
:100F50002C4481EA030621EA4C5123EA4C5350EA1F
:100F6000013518BF52EA033541F4801143F4801370
:100F700038D0A0FB02CE4FF00005E1FB02E506F001
:100F80000042E0FB03E54FF00006E1FB03569CF056
:100F9000000F18BF4EF0010EA4F1FF04B6F5007F5C
:100FA00064F5407404D25FEA4E0E6D4146EB0606CE
:100FB00042EAC62141EA55514FEAC52040EA5E5057
:100FC0004FEACE2EB4F1FD0C88BFBCF5E06F1ED801
:100FD000BEF1004F08BF5FEA500E50F1000041EB38
:100FE000045170BD06F0004646EA010140EA0200E5
:100FF00081EA0301B4EB5C04C2BFD4EB0C0541EA07
:10100000045170BD41F480114FF0000E013C00F31B
:10101000AB8014F1360FDEBF002001F0004170BD3F
:10102000C4F10004203C35DA0C341BDC04F1140458
:10103000C4F1200500FA05F320FA04F001FA05F2E4
:1010400040EA020001F0004221F0004110EBD370B1
:1010500021FA04F642EB06015EEA430E08BF20EADD
:10106000D37070BDC4F10C04C4F1200500FA04F380
:1010700020FA05F001FA04F240EA020001F0004112
:1010800010EBD37041F100015EEA430E08BF20EA85
:10109000D37070BDC4F1200500FA05F24EEA020ECD
:1010A00020FA04F301FA05F243EA020321FA04F0FC
:1010B00001F0004121FA04F220EA020000EBD370B3
:1010C0005EEA430E08BF20EAD37070BD94F0000FB3
:1010D0000FD101F00046400041EB010111F4801FE7
:1010E00008BF013CF7D041EA060195F0000F18BF98
:1010F000704703F00046520043EB030313F4801FD4
:1011000008BF013DF7D043EA0603704794EA0C0F8D
:101110000CEA135518BF95EA0C0F0CD050EA4106A3
:1011200018BF52EA4306D1D181EA030101F0004120
:101130004FF0000070BD50EA410606BF1046194648
:1011400052EA430619D094EA0C0F02D150EA013654
:1011500013D195EA0C0F05D152EA03361CBF104695
:1011600019460AD181EA030101F0004141F0FE4134
:1011700041F470014FF0000070BD41F0FE4141F4B8
:10118000780170BD70B54FF0FF0C4CF4E06C1CEAB8
:1011900011541DBF1CEA135594EA0C0F95EA0C0F6D
:1011A00000F0A7F8A4EB050481EA030E52EA033528
:1011B0004FEA013100F088804FEA03334FF0805549
:1011C00045EA131343EA12634FEA022245EA111576
:1011D00045EA10654FEA00260EF000419D4208BF27
:1011E000964244F1FD0404F5407402D25B084FEAD4
:1011F0003202B61A65EB03055B084FEA32024FF480
:1012000080104FF4002CB6EB020E75EB030E22BFDC
:10121000B61A754640EA0C005B084FEA3202B6EB9C
:10122000020E75EB030E22BFB61A754640EA5C004B
:101230005B084FEA3202B6EB020E75EB030E22BFDB
:10124000B61A754640EA9C005B084FEA3202B6EBDC
:10125000020E75EB030E22BFB61A754640EADC009B
:1012600055EA060E18D04FEA051545EA16754FEAFD
:1012700006164FEAC30343EA52734FEAC2025FEA1B
:101280001C1CC0D111F4801F0BD141EA00014FF0AA
:1012900000004FF0004CB6E711F4801F04BF01437B
:1012A0000020B4F1FD0C88BFBCF5E06F3FF6AFAE97
:1012B000B5EB030C04BFB6EB020C5FEA500C50F127
:1012C000000041EB045170BD0EF0004E4EEA1131AA
:1012D00014EB5C04C2BFD4EB0C0541EA045170BDB1
:1012E00041F480114FF0000E013C90E645EA060EF5
:1012F0008DE60CEA135594EA0C0F08BF95EA0C0F23
:101300003FF43BAF94EA0C0F0AD150EA01347FF46A
:1013100034AF95EA0C0F7FF425AF104619462CE741
:1013200095EA0C0F06D152EA03353FF4FDAE1046A4
:10133000194622E750EA410618BF52EA43067FF4F5
:10134000C5AE50EA41047FF40DAF52EA43057FF485
:10135000EBAE12E74FF0FF3C06E000BF4FF0010C90
:1013600002E000BF4FF0010C4DF804CD4FEA410CF4
:101370007FEA6C5C4FEA430C18BF7FEA6C5C1BD0C1
:1013800001B050EA410C0CBF52EA430C91EA030F42
:1013900002BF90EA020F0020704710F1000F91EA9F
:1013A000030F58BF994208BF90422CBFD8176FEA6D
:1013B000E37040F0010070474FEA410C7FEA6C5C3B
:1013C00002D150EA013C07D14FEA430C7FEA6C5C42
:1013D000D6D152EA033CD3D05DF8040B704700BF6E
:1013E0008446104662468C461946634600E000BFBC
:1013F00001B5FFF7B7FF002848BF10F1000F01BD8E
:101400004DF808EDFFF7F4FF0CBF012000205DF858
:1014100008FB00BF4DF808EDFFF7EAFF34BF0120DD
:1014200000205DF808FB00BF4DF808EDFFF7E0FF76
:1014300094BF012000205DF808FB00BF4DF808EDC7
:10144000FFF7CEFF94BF012000205DF808FB00BF2E
:101450004DF808EDFFF7C4FF34BF012000205DF810
:1014600008FB00BF4FEA410C7FEA6C5C02D150EAF6
:10147000013C0AD14FEA430C7FEA6C5C02D152EA8C
:10148000033C02D14FF0000070474FF0010070475D
:101490004FEA410212F5001215D211D56FF478739C
:1014A000B3EB625212D94FEAC12343F0004343EA3F
:1014B000505311F0004F23FA02F018BF404270471A
:1014C0004FF00000704750EA013005D111F00040A4
:1014D00008BF6FF0004070474FF00000704700BF3A
:1014E0004A0011D212F5001211D20DD56FF47873A3
:1014F000B3EB62520ED44FEAC12343F0004343EAF8
:10150000505323FA02F070474FF00000704750EA42
:10151000013002D14FF0FF3070474FF000007047AC
:101520004FEA4102B2F1E04324BFB3F5001CDCF105
:10153000FE5C0DD901F0004C4FEAC0024CEA50703D
:10154000B2F1004F40EB830008BF20F0010070476C
:1015500011F0804F21D113F13872BCBF01F000406F
:10156000704741F480114FEA5252C2F11802C2F1A1
:10157000200C10FA0CF320FA02F018BF40F0010022
:101580004FEAC1234FEAD32303FA0CFC40EA0C00D4
:1015900023FA02F34FEA4303CCE77FEA625307D111
:1015A00050EA01331EBF4FF0FE4040F44000704748
:1015B00001F0004040F0FE4040F40000704700BFE2
:1015C0004FEA40024FEA41037FEA226C02D15FEA10
:1015D000402C08D17FEA236C02D15FEA412C02D172
:1015E0004FF0000070474FF00100704738B50022FF
:1015F000002304460D46FFF70DFF28B92046294673
:10160000BDE8384000F00AB8204605F1004100F07E
:1016100005F8404261EB410138BD00BFD0B50C4B2D
:10162000002206460F46FFF783FCFFF759FF0446EA
:10163000FEF710FF074B0022FFF77AFC02460B462D
:1016400030463946FEF7C8FDFFF74AFF2146D0BDB8
:101650000000F03D0000F04108B50021FFF720FA3E
:1016600010B94FF07E5008BD0048FCE7000080BF75
:1016700084B030B504AC84E80E0088B3044690F81A
:101680002530072B0CD990F82430013303F00703E1
:1016900080F82430072380F82530836A0133836281
:1016A00094F824C094F82550AC440CF0070C0CF1CD
:1016B000010C0CEB8C0C04EBCC0C0CF1040C0DF1BC
:1016C000100EBEE80F00ACE80F00BEE80F00ACE85B
:1016D0000F009EE803008CE80300013584F82550D4
:1016E000BDE8304004B0704708B502464FF40041F1
:1016F000014806F0B2F808BD000002402DE9F041B3
:101700008AB005460E4614461F4628220021684628
:101710000AF0CFF9336A5A1C3262009305F0D6FA08
:10172000079004972CB3276E266FAEB1B04232D922
:10173000861BE36FB34231D3D4F864803046FEF7A2
:10174000B9FF01464046FFF70DF81949FFF70AF8BF
:101750003946FEF7FFFE00E03846019702900390FD
:10176000636E05930696A36F0893CBB900238DF89B
:101770002430AC46EE46BEE80F00ACE80F00BEE8F1
:101780000F00ACE80F009EE803008CE80300284639
:101790000AB0BDE8F08138460026DEE73846DCE7CF
:1017A000204604F01FFE08B90123E0E70023DEE72E
:1017B0006F12833A18B330B593B01346044608ADA0
:1017C0000A4601462846FFF799FFEC460DF12C0E1C
:1017D000BEE80F00ACE80F009EE807008CE80700A9
:1017E00095E80E002046FFF743FF0125257405F01C
:1017F0006DFA60612846FFF777FF13B030BD704780
:1018000098B110B504464FF4B67200210AF051F9B0
:10181000064B63604FF07E53A3600523E360012312
:1018200023620020FFF760FF10BD704700004842B0
:101830002DE9F041069F08B3884615461E4604462A
:1018400012491846FFF74AF900B1666007B1E76030
:101850000798FFF701FFA0602570002323767DB174
:10186000B8F1000F0AD0D8F86010FEF77BFF0146F0
:101870006068FEF76FFEE06101232376BDE8F0812A
:101880001846FFF731FF00232374F7E7CDCCCC3D9A
:1018900038B1002280F8242080F8252082620122BD
:1018A00002627047002855D02DE9F0410D460446EC
:1018B00005F00CFA237C23B16369C01AE3689842EF
:1018C00027D22378002B33D0002D31D0284604F0C6
:1018D00089FD68BB237E0BB3A7683946286EFEF7E7
:1018E00041FF0646D4F81C8001464046FFF7F6F853
:1018F000F0B941463846FEF735FF024629462046F4
:10190000FFF758FF67683946E069FEF723FEE0619C
:1019100018E000202074FFF7E7FED2E7A168286EE8
:10192000FEF720FF6168FEF715FEE06101232376D4
:10193000BDE8F08129463846FEF70CFEE061A36A57
:101940000133A362E56931462846FFF7B3F8002862
:10195000F0D1EDE77047000030B108B531B1044A6D
:10196000FFF728FF012008BD002070470020FAE79C
:101970000000C07F98B330B50C4686468AB390F815
:10198000253083B319B390F824C00CF1010C0CEB93
:101990008C0C0EEBCC0C15460CF1040CBCE80F00C3
:1019A0000FC5BCE80F000FC59CE8030085E80300E5
:1019B000DCB19EF82430013303F007038EF82430A5
:1019C0009EF82530013B8EF8253020460CE090F83B
:1019D00024C09C440CF1FF3C0CF0070CD5E7002020
:1019E0007047002000E0002030BD0120FCE740B13E
:1019F00008B503460020187018741876FFF774FEB7
:101A000008BD704770B504460E4605F05FF90546FF
:101A10002146084805F08AFB50B105F057F9401BF4
:101A2000B042F5D92146034805F05AFB002000E0FA
:101A3000012070BDCC12002008B50D480D4B03608D
:101A40000E23436000238360C3604FF44032026181
:101A500043610376012242768376C2760377437729
:101A600005F04EF900B908BD03F0A6FCFBE700BF86
:101A7000CC1200200064004010B588B0002303930E
:101A800004930593069307930268194B9A4201D079
:101A900008B010BD0024019403F5EA331A6C42F03B
:101AA00000721A641A6C02F000720192019A029498
:101AB0001A6B42F002021A631B6B03F002030293DB
:101AC000029B4FF440730393022304930323069372
:101AD0000923079303A9074805F0BEFD224601210B
:101AE000142005F091FD142005F09EFDD0E700BF05
:101AF000006400400004024000B58BB028220021A1
:101B0000684609F0D6FF0123079308930E23099333
:101B100069460B4805F09AF918B100200BB05DF842
:101B200004FB074805F030FA08B10020F6E702216F
:101B3000034805F0B9FBB0FA80F04009EEE700BFBA
:101B4000CC120020002851D02DE9F0438BB0814603
:101B500002294DD90239CDB24FF000084746AF42B5
:101B600042D20023049305930693079308930993A5
:101B7000029303930193EE1BF6B2072E00D90726BA
:101B800099F8003048EA0323059304230693731C55
:101B9000089399F801308DF80830B91C3246494451
:101BA0000DF109000AF048F805F090F8044601AB81
:101BB00002AA04A90F4805F015FA40B105F086F80D
:101BC000001B0A28F3D900200BB0BDE8F0830A21DE
:101BD0000198FFF717FF0028F5D03E44F7B208F14F
:101BE00001085FFA88F8BAE70120EDE700207047A6
:101BF0000020E9E7CC120020024B1B78DBB2024A3E
:101C000013707047C9120020C812002018B3844610
:101C1000134B1A78D2B2134B1B78DBB29A421CD00A
:101C200010B50F4C237803EB83020F4B03EBC20E6E
:101C3000BEE80F00ACE80F00BEE80F00ACE80F00F4
:101C40009EE803008CE803002378013303F03F0390
:101C50002370012010BD002070470020704700BF96
:101C6000C8120020C9120020C8080020C8B170B5F1
:101C700004460C4E33689D69304605F058FC2060E0
:101C8000304605F06AFC6060A56033689B68E360DD
:101C9000C5F3074323742B0E6374C5F38005A57445
:101CA00070BD7047CC12002002681C4B9A4200D0D5
:101CB000704770B58AB01A4B1C78013404F03F04A9
:101CC000184B1B78DBB2A34214D0154B19781B7844
:101CD00003EB8303DB001833134A134401EB810148
:101CE000043302EBC1020021104805F032FA40B182
:101CF0000AB070BD07AB6A4600210C4805F029FA0E
:101D0000F6E7074E3578EDB204F0E0FF05EB850508
:101D1000054B03EBC50358623470E9E700640040EB
:101D2000C9120020C8120020C8080020CC120020D0
:101D3000002B00F0B6802DE9F04705460F4614460B
:101D4000984622F000405A49FEF7AAFE002840F0CB
:101D5000AA80584B1E68584B19683846FEF7F8FBA6
:101D6000074629462846FEF7FDFC05463946384613
:101D7000FEF7F8FC01462846FEF7ECFB0546214637
:101D80002046FEF7EFFC01462846FEF7E3FB4B4BEF
:101D9000D3F800904946FEF7DDFB494B1968FEF782
:101DA000D7FB054631463046FEF7DCFC01462846A7
:101DB000FEF7CEFB054621462046FEF7CBFB01464B
:101DC0002846FEF783FD054639463046FEF7C0FB40
:101DD0002146FEF77BFD044601463046FEF7C2FC75
:101DE0002946FEF7B7FB00F10041FEF7BBFC824637
:101DF00021462046FEF7B6FC074601464846FEF758
:101E0000B1FC01465046FEF7A5FB01464846FEF7E9
:101E1000A1FB81460021FEF743FE002845D1214663
:101E20002846FEF79FFC01463046FEF791FB8246AE
:101E300048460EF05BFC01465046FEF789FB8146A2
:101E40004FF07E513846FEF785FB01464846FEF7C7
:101E50003DFD074601462046FEF784FC2946FEF775
:101E600079FB00F1004439463046FEF771FB01462C
:101E70002046FEF72BFD0EF053FC1249FEF772FCD4
:101E8000044639463046FEF70BFE40B10E49204667
:101E9000FEF760FBC8F800000120BDE8F0870021D4
:101EA000F5E7002070470020F7E70020F5E700BFC6
:101EB0006F12833AFC12002000130020F812002059
:101EC000F4120020E12E654200003443064B074A1D
:101ED0001A60074B074A1A60074B084A1A60084BFA
:101EE000084A1A60704700BF0013002066900A423B
:101EF000FC1200205A0096C2F81200200000614631
:101F0000F41200200008C34710B584B004AB03E905
:101F1000070001980146FEF725FC04460298014699
:101F2000FEF720FC01462046FEF714FB0EF0DEFB18
:101F30004FF08741FEF7D2FD60B9039C0949204666
:101F4000FEF7AEFD48B900212046FEF7C7FD30B9C7
:101F5000012000E0002004B010BD0020FBE70020BD
:101F6000F9E700BF0000D2C32DE9F04F85B004AC03
:101F700004E9070033B11C4604AB13E90700FFF77F
:101F8000C3FF18B9002005B0BDE8F08F019D029E87
:101F9000039F23463A4631462846FFF7C9FE0028EC
:101FA000F1D04FF03F412846FEF7DCFB804619494F
:101FB0003046FEF7D7FB81464FF03F413046FEF7F3
:101FC000D1FB064613492846FEF7CCFB054604F133
:101FD000040B01463046FEF7BBFA824649464046AE
:101FE000FEF7B8FA5B463A465146FFF7A1FE0028D5
:101FF000C9D0083429463046FEF7ACFA05464946B2
:102000004046FEF7A5FA23463A462946FFF790FEDA
:10201000B9E700BFD7B35D3F2DE9F04F8FB00EACED
:1020200004E907000593002B00F0B6813A490B98AC
:10203000FEF798FB064638490C98FEF793FB0546D9
:1020400035490D98FEF78EFB804630460EF074FC45
:102050003249FEF787FB3249FEF77CFA044600F16D
:102060000042049230460EF0A3FC2E49FEF77AFBA4
:10207000019028460EF060FC2849FEF773FB2849C2
:10208000FEF768FA4FF07C51FEF76CFB06462649D6
:10209000FEF768FB834628460EF08AFC2149FEF7CE
:1020A00061FB814640460EF047FC1C49FEF75AFB97
:1020B0001B49FEF74FFA4FF07C51FEF753FB0546E4
:1020C00000F100401849FEF74DFB074640460EF070
:1020D0006FFC1449FEF746FB804631462046FEF76A
:1020E00039FA02903946FEF73DFB824629462046E2
:1020F000FEF730FA03905946FEF734FB014650468E
:10210000FEF726FA824620F000400849FEF7C8FC98
:10211000002840F043810BE035FA8E3C0000F0428D
:102120004D7021420000F0C2D7B3DD3F6F12833AF9
:1021300021462046FEF716FB044601990846FEF7A5
:1021400011FB069001462046FEF704FA0790594617
:102150005846FEF707FB044631463046FEF702FBC1
:1021600001462046FEF7F6F9044649464846FEF782
:10217000F9FA01462046FEF7EDF90890394638464F
:10218000FEF7F0FA044629462846FEF7EBFA014628
:102190002046FEF7DFF9044641464046FEF7E2FAE4
:1021A00001462046FEF7D6F90990019E3146484681
:1021B000FEF7CEF9044601460398FEF7D3FA05462A
:1021C00031464046FEF7C4F90A9001460298FEF7F0
:1021D000C9FA01462846FEF7BBF90646DDF81C8021
:1021E00041460898FEF7B4F9814601460398FEF788
:1021F000B9FA054641460998FEF7AAF98046014614
:102200000298FEF7AFFA01462846FEF7A1F900F161
:1022100000404FF07C51FEF7A5FA054604F100405E
:102220003946FEF79FFA044659460A98FEF79AFA8D
:1022300001462046FEF78EF9044639464846FEF729
:1022400091FA074659464046FEF78CFA0146384651
:10225000FEF77EF94FF07C51FEF784FA8146314655
:102260003046FEF77FFA074621462046FEF77AFA07
:1022700001463846FEF76EF9074651465046FEF7CE
:1022800071FA804601463846FEF764F983462946CE
:102290003046FEF767FA074651460498FEF762FAA1
:1022A0000146CDF808904846FEF752F9814621468E
:1022B000FEF758FA01463846FEF74CF907465146F4
:1022C0000198FEF74FFA5146FEF74CFA01463846A0
:1022D000FEF73EF90146FEF73DF9074649464846F6
:1022E000FEF740FA814629462846FEF73BFA0146AA
:1022F0004846FEF72FF981462A490698FEF728F945
:1023000001464046FEF72EFA01464846FEF722F9FE
:10231000814639463846FEF725FA80464FF081411E
:102320005846FEF71FFA4946FEF71CFA014640469A
:10233000FEF70EF980460021FEF7B2FB80BB404657
:102340000EF0D4F93946FEF705F94FF03F41FEF79C
:1023500009FA5946FEF7BAFA0746DDF81480C8F8BC
:1023600008003146FEF7FEF92946FEF7F3F851461C
:10237000FEF7ACFAC8F8000021463846FEF7F2F93D
:102380000299FEF7E7F85146FEF7A0FAC8F80400F4
:1023900001200FB0BDE8F08F0020FAE70020F8E739
:1023A0000020F6E70008C34770B504460E46154600
:1023B000FEF776FB30B929462046FEF78FFB18B9A9
:1023C000204670BD3046FCE72846FAE718B180F891
:1023D000C010C0F8BC207047F0B170B50C4615466F
:1023E0000646C06CFEF766FB80B12146306DFEF7F5
:1023F0006BFB68B12946706DFEF75CFB50B1294656
:10240000B06DFEF761FB10B1012000E0002070BD4F
:102410000020FCE70020FAE700207047002800F0C9
:10242000DC802DE9F04F83B00E460446002900F011
:10243000CD8090F87430002B00F0C880D0F8109058
:10244000D0F88810306EFEF783F801464846FEF754
:1024500089F98046C4F8A800E16FFEF77BF861684F
:10246000FEF776F8A168FEF775F80546C4F88C000B
:10247000E168D4F88000FEF76DF80746C4F89000D4
:10248000D4F814A029465046FEF762F8C4F8940028
:10249000716E4846FEF766F90646C4F89C00D4F80B
:1024A00038904FF07E514846FEF718FBE0B1D4F863
:1024B00040B0E36B019319465846FEF70FFB98B105
:1024C00001995846FEF744F8834644494846FEF7CA
:1024D00049F901465846FEF7F9F9024600F1004174
:1024E0003046FFF761FF0646D4F8A0B000215846F9
:1024F000FEF7CCFA002853D0C4F8A060D4F8A0604E
:1025000026F0004635494846FEF72CF9014630468C
:10251000FEF728F9E16BFEF71DF80026226C314624
:10252000FFF742FF0146C4F898005046FEF710F846
:102530008146C4F8A400D4F8AC104046FEF708F871
:10254000C4F8B0003146FEF7ABFA002838D13A465D
:1025500029462046FFF740FF84F8B4004FF00106FB
:10256000A169D4F8B000FEF7AFFA08B94FF0000641
:10257000F3B284F8B56033B3A16C4846FDF7E8FFC9
:1025800001462846FEF7A0FA18B3616C5046FDF7E5
:10259000E1FF01462846FEF78DFAE0B9002313E07B
:1025A0000F495846FEF7DEF883460E493046FEF7DF
:1025B000D9F801465846FDF7CDFFC4F8A0009DE7C5
:1025C000C4F8B060C3E7002384F8B63003B0BDE8B8
:1025D000F08F0023F8E70123F6E770476F12833A84
:1025E000CDCC4C3FCDCC4C3E28B1002242700022D5
:1025F000026142618261704730B591B00DF1140CF7
:102600008CE80E00E8B10446057F00238DF83F30CA
:10261000012303770DF13F03029309AB01930CAB48
:1026200000939CE80E0003F0CFFC257720B19DF8C5
:102630003F3023B9002000E0002011B030BD012060
:10264000FBE70020F9E7000070B58AB0002839D018
:102650000D4614460646002936D0002A36D0D0F85A
:102660008C200792D0F89020089209930AAB13E9C6
:102670000E002846FFF7C0FF0546C0B1D6F8A030CF
:102680000493002305930693012323700E9AA262FC
:10269000039304AB93E807008DE807000AAB13E946
:1026A0000E00204600F066FB28460AB070BD084BBD
:1026B000C6F8C43004F00AFB02460A213046FFF790
:1026C00085FEF1E70025EFE70025EDE70025EBE7C4
:1026D0003016010800B583B0D0F828C0CDF800C08E
:1026E000C369FFF7B1FF03B05DF804FB00B583B029
:1026F000D0F82CC0CDF800C0FFF7A6FF03B05DF8FE
:1027000004FB000080B3002180F874104FF0FF320A
:1027100082670022C267C0F88020C0F88420C0F819
:102720008820C0F88C20C0F89020C0F89420C0F811
:102730009820C0F89C20C0F8A020C0F8A420C0F8C1
:10274000A820C0F8AC20C0F8B02080F8B41080F801
:10275000B51080F8B610C0F8B810C0F8BC1080F8FA
:10276000C010024AC0F8C420704700BF3C160108E0
:10277000002844D038B5044600250570204B43603E
:1027800000238360C3604FF07E52026143611D4AA3
:1027900082611D4AC2611D49016242621C4A826215
:1027A0001C4AC2621C49016343638263C3631B4BBF
:1027B00003641B4B43644FF080438364194AC26433
:1027C000194B0365426583654FF4FA53C365502383
:1027D0000366782343663C228266C366012380F841
:1027E0007030FFF78FFF84F8C050104BC4F8C4302E
:1027F000C4F8C850C4F8CC50C4F8D05038BD7047A5
:10280000D7A38C4300007042000096C30080C0C371
:1028100000007A4300003443000096430000F0417A
:102820000000C8410000BEC20000BE423C160108C4
:1028300030B108B5017001B108BDFFF763FFFBE7D8
:10284000704700002DE9F04708B30D4690461F463B
:102850000446A1B1067896B190F87430DBB190F8D7
:10286000C030092B17D00A2B15D0D0F8D030013347
:10287000C0F8D0302C4BC0F8C430002608E0D4F8A3
:10288000D0300133C4F8D030284BC4F8C43000260F
:102890003046BDE8F087284603F0A4FD48B1D4F8DF
:1028A000D0300133C4F8D030214BC4F8C4300026F6
:1028B000EEE704F00BFA81464FF0010A84F874A0A9
:1028C000099BA367C4F87C80C4F88070089BC4F897
:1028D00084302B6EC4F88830C4F8B800C4F8BC004B
:1028E000696E2069FDF73EFFC4F89C000027C4F81C
:1028F000A070D4F8C8305344C4F8C8300D4BC4F8A5
:10290000C43029462046FFF789FDD4F8A830C4F822
:10291000AC30C4F8B070002384F8B5304A46514654
:102920002046FFF753FDB3E750160108441601088F
:10293000581601083C160108002800F04F812DE9C7
:10294000F0410C461646054629B122B1037813B171
:1029500090F874300BB9BDE8F08104F0B7F9074680
:10296000204602F097FF40BB204603F03BFD68BBCA
:10297000D5F8B830FB1AEA6D93420BD995F8C03000
:10298000092B07D00A2B05D0062B03D0072B01D02B
:10299000082B24D121462846FFF740FD95F8C0308A
:1029A000013B072BD7D8DFE813F0230023004300B7
:1029B0006C008100BD00D300F200894BC5F8C43023
:1029C0003A460A212846FFF701FDC4E7854BC5F8C2
:1029D000C4303A460A212846FFF7F8FCBBE7824B91
:1029E000C5F8C4303A460A212846FFF7EFFCB2E7A3
:1029F00095F8B430B3B1D5F8A830C5F8AC300023A1
:102A0000C5F8B030002385F8B53032462146284657
:102A1000FFF760FE00289ED03A4603212846FFF7C4
:102A2000D5FC98E73A4602212846FFF7CFFC92E70B
:102A300095F8B4309BB1324621462846FFF74AFE4E
:102A4000002888D02A6BD5F88410204603F0BCFB00
:102A500070B13A4604212846FFF7B8FC7BE7634B88
:102A6000C5F8C4303A460A212846FFF7AFFC72E7A2
:102A70005F4BC5F8C4303A460A212846FFF7A6FC4A
:102A800069E7324621462846FFF724FE00283FF436
:102A900062AFD5F8BC30FB1A2A6E9342FFF45BAFED
:102AA0003A4605212846FFF791FC54E795F8B430E3
:102AB00033B3324621462846FFF70CFE00283FF488
:102AC0004AAFD5F88C80696C6869FDF743FD014613
:102AD0004046FEF703F8E0B995F8B630002B3FF416
:102AE0003AAF2B6A324621462846FFF7FFFD002801
:102AF0003FF431AF3A4606212846FFF767FC2AE744
:102B00003A4BC5F8C4303A460A212846FFF75EFC26
:102B100021E7384BC5F8C4303A460A212846FFF76A
:102B200055FC18E72B6A324621462846FFF7DEFDA2
:102B300000283FF410AFD5F8BC30FB1A6A6E934200
:102B4000FFF409AF3A4607212846FFF73FFC02E7AA
:102B50002B6A324621462846FFF7C8FD00283FF47D
:102B6000FAAED5F8BC30FB1AAA6E9342FFF4F3AE6E
:102B70006B6A324621462846FFF7B8FD00283FF42D
:102B8000EAAE3A4608212846FFF720FCE3E66B6AE6
:102B9000324621462846FFF7A9FD00283FF4DBAE68
:102BA000D5F8BC30FB1AEA6E9342FFF4D4AE95F828
:102BB00070306BB93046FFF717FDD5F8CC300133D4
:102BC000C5F8CC303A4609212846FFF7FFFBC2E69C
:102BD0002A6B696B204603F0F7FAEBE7704700BFFA
:102BE000681601085816010874160108AC16010889
:102BF000801601088C1601080A281BD8DFE800F0AF
:102C0000061C080A0C0E1012141618000B48704708
:102C10000B4870470B4870470B4870470B4870478C
:102C20000B4870470B4870470B4870470B4870477C
:102C30000B4870470B4870470B48704798160108BF
:102C4000A8160108B8160108C0160108C816010820
:102C5000D0160108D8160108E0160108E816010888
:102C6000F0160108F8160108A0160108002837D050
:102C700010B503460024047044704FF0000CC0F8F7
:102C800004C0C0F808C0C0F80CC0C0F810C0C0F83C
:102C900014C0C0F818C000F11C0E021D07CA8EE84F
:102CA0000700104A9A62DA624FF07C521A630E4AA9
:102CB0005A63C3F838C0C3F83CC0C3F840C01922F7
:102CC0005A649C64DC641C655C654FF496729A657A
:102CD000DC651C665C66054A9A6683F86C4010BD2C
:102CE000704700BF000096430000A0403C1601085A
:102CF000F8B50A9F002834D015461E4604460170D8
:102D000000292FD000211046FDF7E8FE00B1A56292
:102D100000213846FDF7E2FE38B3E762042E00D901
:102D2000666400210698FDF7CFFE08B1069B236379
:102D300000210798FDF7D2FE08B1079B6363089B4B
:102D4000312B00D9A365099BB3F5FA7F00D8A364A2
:102D500003F0BCFFE06400236365054AA26684F8C3
:102D60006C30F8BD00234370FBE7A76AD5E700BFCE
:102D70003C16010870B584B004AC04E90E009DF85F
:102D80002C60002852D0044603F0A0FF054626BB65
:102D90006378002B4CD0206D281A24D0FDF78AFCD4
:102DA0002649FDF793FD064661680198FDF7D0FBC3
:102DB0003146FDF78BFD2061A1680298FDF7C8FB45
:102DC0003146FDF783FD6061E1680398FDF7C0FBC4
:102DD0003146FDF77BFDA06105E004F1100308AA70
:102DE00007CA83E80700E66804F1040C01AB93E826
:102DF00007008CE8070004F11C0C8CE80700012395
:102E000063702565E36D0133E3650D4BA366002315
:102E100084F86C3031460398FDF79AFB20F00045AA
:102E200008492846FDF75AFE00B1256404B070BD7C
:102E3000002323616361A361D5E700BF00007A44EA
:102E40003C1601080AD7233C034620B1026E01322A
:102E5000026609B1996670470049FBE7F816010858
:102E600050B110B5044643780BB9002010BD03F0F3
:102E70002DFF236DC01AF9E70020704790B110B5FF
:102E80000446007820B194F86C0008B9607800B965
:102E900010BD2046FFF7E4FFA36D984294BF0020C9
:102EA0000120F5E700207047002800F054812DE94B
:102EB000F04F97B00D46044619B103780BB1437833
:102EC00013B917B0BDE8F08F03F000FF0646236D7D
:102ED000C31AA26D934200F22781E36CC31A626C9D
:102EE0009342EED395E8070016AB03E90700A06C08
:102EF000FDF7E0FB9849FDF7E9FC0746D4F80480AC
:102F000001462069FDF72EFC01464046FDF722FBF5
:102F10001090D4F8088039466069FDF723FC01461B
:102F20004046FDF717FB1190D4F80C803946A06994
:102F3000FDF718FC01464046FDF70CFB12900DAB67
:102F400010AA07CAFFF710F8002800F0F58004F176
:102F50001C0310AA07CA83E80700139B05931946B0
:102F6000E069FDF7F5FA07460790149B06931946AA
:102F7000206AFDF7EDFA80460890159B04931946E8
:102F8000606AFDF7E5FA824639463846FDF7EAFB06
:102F9000074641464046FDF7E5FB01463846FDF74A
:102FA000D9FA0DF0A3FB07460146FDF7DBFB80468F
:102FB00051465046FDF7D6FB01464046FDF7CAFA9A
:102FC0000DF094FB0146A063E7632AF00048C4F8C3
:102FD0004080206BFDF778FD002840F0B480E36C62
:102FE000F31AD4F8449009EB89025008B3EB520F5E
:102FF00000D81846FDF75EFB02905849FDF7B2FB7A
:103000000390D4F834B04846FDF754FB01460298CB
:10301000FDF75CFC01465846FDF7A4FB0290D4F88E
:1030200028B003995846FDF79DFB8146014602985A
:10303000FDF736FD08B1DDF8089039464846FDF742
:103040004DFD00B1B9460399E06AFDF78BFB09908D
:1030500001460298FDF724FD08B9099B02930299E5
:103060004046FDF71DFD08B9DDF808800AAB16AA39
:1030700012E9070083E8070039493846FDF72EFDBD
:10308000B0B139464846FDF721FC0746014607988E
:10309000FDF768FB01460598FDF75CFA0A90394692
:1030A0000898FDF75FFB01460698FDF753FA0B9071
:1030B00000215046FDF708FD002849D041460498FC
:1030C000FDF748FA0C9049464846FDF74BFB07468A
:1030D00041464046FDF746FB01463846FDF73AFAC1
:1030E0000DF004FB0399FDF7F1FB07460146584636
:1030F000FDF7F4FC00B9BB462F7F01232B77CDF8F9
:1031000000B00AAB0ECB284603F04DF82F77E36CE6
:10311000F31A6365E66400287FF4D3AE636E01336F
:103120006366104BA366CCE6002363700E4BA36668
:10313000012384F86C30C4E604F11C03221D07CA85
:1031400083E8070009E7E36CF31A6365E664B8E611
:1031500008F10041B3E7704700007A446F12833AE8
:10316000BD3786350017010878160108202804D0DD
:10317000092804D028B90120704701207047012098
:103180007047002070470000B1B138B504460D46C5
:103190000D49FDF77BFC88B900212046FDF780FC36
:1031A00070B90A492046FDF799FC58B92046FDF749
:1031B000C5FC2870012002E000207047002038BDC7
:1031C0000020FCE70020FAE76020714900007F43FF
:1031D0000B46E1B1EAB1012805D0022809D0032845
:1031E0000ED0002070474FF07E5119600A4B1360DB
:1031F00070474FF07E511960074B136001207047F4
:103200004FF07E511960044B13600120704700207D
:1032100070470020704700BF0000A040F8B504468A
:1032200016461D46069F00230360436083600B7FA4
:1032300013B107C984E8070009493046FDF726FCA9
:1032400000B9266006492846FDF720FC00B96560F4
:1032500003493846FDF71AFC00B9A7602046F8BDBF
:103260006020714908B5024803F0C4FA08BD00BFE8
:103270000C17010882B02DE9F047BEB013AC84E80A
:10328000070047939DF828A11398FDF705F9CDE9AC
:103290000E011498FDF700F9CDE910011598FDF71E
:1032A000FBF804460D464798FDF7F6F806460F462C
:1032B0004898FDF7F1F8804689464998FDF7ECF803
:1032C000BAF1000F1ED001230C93CDE90A01CDE91C
:1032D0000889CDE90667CDE90445DDE91034CDE97B
:1032E0000234DDE90E34CDE90034074AA02116A8E6
:1032F00008F068FB16A803F07DFA3EB0BDE8F04781
:1033000002B070470023DFE71417010800B591B041
:10331000034650B1064A4021684608F053FB684610
:1033200003F068FA11B05DF804FB024BF2E700BF4E
:103330004C170108F81601082DE9F047C4B0002821
:1033400032D004460378002B32D001256068FDF7A7
:10335000A3F806460F46A068FDF79EF8804689460A
:10336000D4F80CA0E069FDF797F894F82520D4F87C
:1033700028C0237CF3B101230A93CDF824C008921E
:10338000CDE90601CDF810A0CDE90289CDE90067AD
:103390002B46094AE0210CA808F014FB0CA803F006
:1033A00029FA44B0BDE8F0870448FFF7AFFFF8E71B
:1033B0000025CBE70023DFE768170108581701084D
:1033C0002DE9F04FCFB0002859D004464FF07E537E
:1033D0001593149314AA15A90078FFF7F9FE002895
:1033E00051D0666815993046FDF7BCF9149F3946EF
:1033F000FDF76CFA13903749FDF7AAF8054694F8E3
:103400000080A368227B617BA07B94F80FC094F8B6
:1034100010E094F8119094F812A094F813B0247D61
:103420001194CDF840B0CDF83CA0CDF83890CDF84F
:1034300034E0CDF830C00B900A91099208933846D9
:10344000FDF72AF8CDE906012846FDF725F8CDE974
:1034500004011398FDF720F8CDE902013046FDF78D
:103460001BF8CDE9000143461B4AE02116A808F0ED
:10347000A9FA16A803F0BEF94FB0BDE8F08F1748BF
:10348000FFF744FFF8E72578227B617BA07BE67B92
:10349000277C637C94F812E094F8138094F81490DD
:1034A000CDF82C90CDF82880CDF824E0089307972C
:1034B0000696059004910392A36802936068FCF756
:1034C000EBFFCDE900012B46054AE02116A808F0E4
:1034D00079FACEE78FC2E540D8170108D017010866
:1034E0005C18010810B502F0D5F9044608B9204669
:1034F00010BD0248FFF70AFFF9E700BF6816010890
:1035000030B58FB00DF1140C8CE80E00129B80B119
:10351000044683B1057F01220277029308AB019331
:103520000BAB00939CE80E0002F04EFD25770FB028
:1035300030BD0020FBE70020F9E7C8B110B5144604
:103540000346B9B112B9002011E0013318782028E0
:10355000FBD00928F9D0472801D04D280CD108709C
:103560000A220021581C08F061F92060012010BDDA
:10357000002070470020FAE70020F8E768B3F0B5B4
:1035800083B00D46164604460ABB002023E00134F2
:103590002378202BFBD0092BF9D0AB4211D16078D6
:1035A000FFF7E4FD68B900230193671C01A93846C1
:1035B00008F06AF8019B9F4203D0306001200AE0C6
:1035C0000134207818B1FFF7D1FD0028F8D0237816
:1035D000002BDDD1002003B0F0BD00207047002893
:1035E00033D02DE9F04182B00D4616461F46044601
:1035F0002BBB002026E0013420782028FBD00928AE
:10360000F9D0A84215D16378B34212D1A078FFF760
:10361000ADFD70B90023019304F1020801A94046F1
:1036200008F032F8019B984503D03860012009E08A
:103630000134207818B1FFF799FD0028F8D02078E0
:103640000028D9D102B0BDE8F08100207047000009
:103650002DE9F04FADF53B7D002800F0C880044611
:10366000FFF7FEFB49902046FFF708FC80462378D1
:10367000002B00F0C0804FF001096378002B00F0B0
:10368000BD804FF0010A6068FCF706FFCDE92C0110
:10369000A068FCF701FFCDE92E01E068FCF7FCFE15
:1036A000CDE930012069FCF7F7FECDE93201606910
:1036B000FCF7F2FECDE93401E069FCF7EDFECDE95F
:1036C0003601206AFCF7E8FECDE93801606AFCF7B4
:1036D000E3FECDE93A01A06AFCF7DEFECDE93C014C
:1036E000E06AFCF7D9FECDE93E01656C206BFCF782
:1036F000D3FECDE94001606BFCF7CEFECDE942017F
:10370000A66CA76DB8F1000F7BD04FF0010BD4F879
:103710005480E06BFCF7C0FECDE94401206CFCF75F
:10372000BBFECDE94601A06BFCF7B6FEE26DD4F816
:1037300060C0D4F864E0A36E002B65D02B93CDF865
:10374000A8E0CDF8A4C02892CDE92601DDE94634F1
:10375000CDE92434DDE94434CDE92234CDF880804C
:10376000CDF87CB01E97499B1D931C96DDE9423431
:10377000CDE91A34DDE94034CDE918341695DDE998
:103780003E34CDE91434DDE93C34CDE91234DDE9D1
:103790003A34CDE91034DDE93834CDE90E34DDE9D1
:1037A0003634CDE90C34DDE93434CDE90A34DDE9D1
:1037B0003234CDE90834DDE93034CDE90634DDE9D1
:1037C0002E34CDE90434DDE92C34CDE90234CDF8D2
:1037D00000A04B460D4A4FF4E0714AA808F0F2F8F9
:1037E0004AA803F007F80DF53B7DBDE8F08F0848C7
:1037F000FFF78CFDF7E74FF000093EE74FF0000AB6
:1038000041E74FF0000B82E7024B97E7C41801082D
:10381000B41801083C1601082DE9F047F8B000285B
:1038200054D00C468046002950D003F04FFAD4F80B
:103830001C90A0EB0905D4F800A0A068FCF72CFEB2
:10384000CDE912016068FCF727FECDE91401E068BC
:10385000FCF722FECDE916012069FCF71DFE0646A5
:103860000F466069FCF718FEA36994F82420002A2B
:1038700030D00122246A98F825C0D8F828E0CDF885
:1038800040E0CDF83CC00E940D920C95CDF82C90F4
:103890000A93CDE90801CDE90667DDE91634CDE9E3
:1038A0000434DDE91434CDE90234DDE91234CDE924
:1038B00000345346084A4FF4C07118A808F082F843
:1038C00018A802F097FF78B0BDE8F0870348FFF72B
:1038D0001DFDF8E70022CDE7F4190108EC190108F5
:1038E0002DE9F04FDBB0002856D00446056F002DBF
:1038F00056D194F850B094F85130002B55D04FF079
:10390000010A606DFCF7C8FDCDE91201A06DFCF75E
:10391000C3FDCDE91401206EFCF7BEFDCDE9160113
:10392000606EFCF7B9FDCDE91801A06EFCF7B4FD9F
:1039300006460F46E06EFCF7AFFD804689462046FE
:1039400002F050FD002833D00123A26F10920F9394
:103950000E95CDE90C89CDE90A67DDE91834CDE98A
:103960000834DDE91634CDE90634DDE91434CDE957
:103970000434DDE91234CDE90234CDF800A05B4611
:103980000C4A4FF480711AA808F01CF81AA802F02B
:1039900031FF5BB0BDE8F08F0748FFF7B7FCF8E7F1
:1039A00003F094F9236FC51AA3E74FF0000AA8E7C4
:1039B0000023CAE78C1A01087C1A01082DE9F04F90
:1039C000ADF2944D002800F0218104460378002BCD
:1039D00000F02081012794F8C000FFF70DF939901D
:1039E00094F87430002B00F017810125D4F878B0DA
:1039F000E06FFCF751FDCDE93A01D4F88000FCF707
:103A00004BFDCDE93C01D4F88C00FCF745FDCDE938
:103A10003E01D4F89000FCF73FFDCDE94001D4F819
:103A20009400FCF739FDCDE94201D4F89800FCF789
:103A300033FDCDE94401206CFCF72EFDCDE94601B4
:103A4000D4F8A400FCF728FDCDE948016669616C53
:103A50003046FCF77FFDFCF71FFDCDE94A01D4F8A5
:103A6000B000FCF719FDCDE94C01A069FCF714FD8D
:103A7000CDE94E0194F8B630002B00F0CF804FF026
:103A8000010894F8B530002B00F0CB804FF001090D
:103A900094F8B430002B00F0C7804FF0010AD4F83E
:103AA0009C00FCF7F9FCCDE95001D4F8A000FCF72C
:103AB000F3FCCDE95201D4F88800FCF7EDFCCDE928
:103AC00054013046FCF7E8FCCDE956016068FCF78C
:103AD000E3FCCDE95801A068FCF7DEFCCDE95A0112
:103AE000E068FCF7D9FCCDE95C012069FCF7D4FC67
:103AF000CDE95E01E069FCF7CFFCCDE96001206A09
:103B0000FCF7CAFCCDE96201606AFCF7C5FCD4F899
:103B1000CC20D4F8C860D4F8D0E0D4F8C430002B5E
:103B200000F085803793CDF8D8E035963492CDE912
:103B30003201DDE96234CDE93034DDE96034CDE9CC
:103B40002E34DDE95E34CDE92C34DDE95C34CDE999
:103B50002A34DDE95A34CDE92834DDE95834CDE999
:103B60002634DDE95634CDE92434DDE95434CDE999
:103B70002234DDE95234CDE92034DDE95034CDE999
:103B80001E34CDF870A0CDF86C90CDF86880DDE9DA
:103B90004E34CDE91834DDE94C34CDE91634DDE995
:103BA0004A34CDE91434DDE94834CDE91234DDE995
:103BB0004634CDE91034DDE94434CDE90E34DDE995
:103BC0004234CDE90C34DDE94034CDE90A34DDE995
:103BD0003E34CDE90834DDE93C34CDE90634DDE995
:103BE0003A34CDE90434CDF808B00195399B0093FF
:103BF0003B46104A4FF4407164A807F0E3FE64A806
:103C000002F0F8FD0DF2944DBDE8F08F0A48FFF781
:103C10007DFBF7E70027DEE60025E7E64FF000082A
:103C20002FE74FF0000933E74FF0000A37E7034B67
:103C300078E700BF101B0108041B01083C160108AF
:103C400070B5ACB027A8FEF711F8279B28992998E2
:103C50009DF8AC409DF8AD509DF8AE209AB101267C
:103C60002A9AC2F382620592049603950294019007
:103C70000091064A802107A807F0A4FE07A802F0D9
:103C8000B9FD2CB070BD0026EAE700BF3C1C01085E
:103C900070B5A8B026A801F03BFB9DF898309DF8C0
:103CA00099209DF89A109DF89B009DF89C409DF8E6
:103CB0009D509DF89E6086B101260596049503945B
:103CC000029001910092064A802106A807F07AFE30
:103CD00006A802F08FFD28B070BD0026EDE700BFFA
:103CE000841C010870B5AEB028B3044690F880007B
:103CF00001F04EFE0546204601F0CCFDF8B101264C
:103D000094F8823094F8832094F9881094F989000B
:103D100094F98A40059404900391029201930096CD
:103D20002B46084AA02106A807F04CFE06A802F080
:103D300061FD2EB070BD0448FFF7E8FAF9E70026F0
:103D4000DEE700BFD41C0108C81C010800B5ADB0F7
:103D500001F0D8FA88B101230293094B0193094B72
:103D60000093094B094AA02104A807F02BFE04A8E0
:103D700002F040FD2DB05DF804FB0023ECE700BF2E
:103D8000841D0108901D0108141D0108501D010823
:103D9000002801F02C822DE9F04FE5B00E461446C4
:103DA0001F460546002900F06181002A00F05E816F
:103DB000002B00F05B816E9B002B00F05781AF4918
:103DC000FDF754F8002800F03481AD492846FDF78E
:103DD0004DF8002800F0318100238DF88F31629377
:103DE00062AA0DF28F112846FFF7A7FB8046002834
:103DF00000F03F81A34A619260925F925E925D9271
:103E00005C925B925A92599258925792569255925E
:103E1000549253925292519250924F924E924D928E
:103E20004C924B9261AA58212846FFF7A7FB60AA43
:103E300059212846FFF7A2FB5FAA5A212846FFF71F
:103E40009DFB5EAA46212846FFF798FB5DAA5321F9
:103E50002846FFF793FB5CAA50212846FFF78EFB0C
:103E60005BAA44212846FFF789FB5AAA522128461B
:103E7000FFF784FB59AA41212846FFF77FFB58AA88
:103E800049212846FFF77AFB57AA54212846FFF715
:103E900075FB56AA56212846FFF770FB55AA4C2100
:103EA0002846FFF76BFB54AA51212846FFF766FB13
:103EB00053AA4B212846FFF761FB52AA57212846F7
:103EC000FFF75CFB51AA43212846FFF757FB50AA96
:103ED00055212846FFF752FB4FAA42212846FFF7FB
:103EE0004DFB4EAA48212846FFF748FB4DAA4A2120
:103EF0002846FFF743FB4CAB582256212846FFF7D4
:103F00006EFB4BAB592256212846FFF768FB9DF804
:103F10008F31472B00F0C080472B00F0E380472B08
:103F200000F0FA80472B00F00081472B00F006815B
:103F30004D2B00F021814D2B00F034814D2B00F0F2
:103F40004A814D2B00F059814D2B00F0E5814D2B1E
:103F500000F088824D2B00F08F824D2B00F0B5824F
:103F60004D2B00F0E4824D2B00F0F2824D2B00F03F
:103F700001834D2B00F052834D2B00F059834D2BC4
:103F800000F0A4834D2B00F0BE834D2B00F0ED8399
:103F90004D2B00F0FB834D2B00F03A844D2B00F0AD
:103FA000F0844D2B00F007854D2B00F061854D2BE3
:103FB00000F070854D2B00F0C0854D2B00F0DF85A3
:103FC0004D2B00F0FC854D2B00F028864D2B00F08A
:103FD0005C864D2B00F0B8864D2B00F0D3864D2B20
:103FE00000F0FF864D2B00F00F874D2B00F044872B
:103FF0004D2B00F06E874D2B00F0A2874D2B00F06B
:10400000D2874D2B00F0D9874D2B00F0F9874D2B2F
:1040100001F01E804D2B01F0A1804D2B05D1629A3D
:1040200040F2E3339A4201F0DE801748FFF76EF961
:104030001CE0164802F0DEFB18E034687568B068D2
:10404000FCF72AFACDE904012846FCF725FACDE968
:1040500002012046FCF720FACDE900010C4A60215C
:104060001BA807F0AFFC1BA802F0C4FB65B0BDE8BD
:10407000F08F0848FFF74AF9F8E700BF9C1D0108D8
:10408000B41D01086020714958200108A41D0108D1
:10409000C01D0108F8160108629A012A3FF63CAFDC
:1040A0003046FFF71FFA0028E0D15F9B0093609B2A
:1040B000619A31461BA8FFF7B1F85E9C8C492046F7
:1040C000FCF7E4FC00B100241BAB00940ECB30469F
:1040D00002F058F818B98748FFF718F9C6E7FFF754
:1040E000C1F8C3E7629A1C2A7FF419AF4FF07C51E4
:1040F0005D98FCF7DFFC18B17F48FFF707F9B5E7DB
:10410000304601F00EFC18B17C4802F073FBADE7BD
:104110007B48FFF7FBF8A9E7629A5A2A7FF402AFBF
:1041200001233377FFF79EF8A0E7629A5B2A7FF4BA
:10413000FCAE00233377FFF795F897E7629A5D2A84
:104140007FF4F6AE34687568B068FCF7A5F9CDE980
:1041500004012846FCF7A0F9CDE902012046FCF74E
:104160009BF9CDE90001674A60211BA807F02AFCF2
:104170001BA802F03FFB79E7629A112A7FF4DBAEBD
:104180003046FFF7AFF900287FF470AF01213046C9
:1041900001F040FB10B1FFF765F867E75A48FFF7F9
:1041A000B5F863E7629A542A7FF4C8AE3046FFF749
:1041B00099F900287FF45AAF6E98FDF718FC00219A
:1041C000304601F027FB10B1FFF74CF84EE74F489F
:1041D000FFF79CF84AE7629A702A7FF4B2AE6E98B5
:1041E000FDF705FC304601F061FB10B1FFF73AF82E
:1041F0003CE74748FFF78AF838E7629AB2F52F7F25
:104200007FF4A2AE5D9F4FF001054FF07C51384620
:10421000FCF764FC08B94FF00005EDB24FF07C519B
:104220003846FCF75BFC002850D15E9E3049304692
:10423000FCF72CFC00B100265C9F2D493846FCF7AA
:1042400025FC002849D13846FCF778FC11905B9F8B
:1042500027493846FCF71AFC00B12E4FDDF868817B
:1042600023494046FCF712FC08B14FF00008DDF886
:104270005C911F494846FCF709FC88BB4846FCF79F
:104280005DFC8246DDF8549119494846FCF7FEFB77
:1042900048B3D4F848B0DDF87C9115494846FCF79E
:1042A000F5FB08B14FF00009CDF81090CDF80CB037
:1042B000CDF808A0CDF804800097119B324629461E
:1042C0002046FEF715FDFEF7CDFFCFE63046FFF79F
:1042D00009F900287FF4CAAEA7E700231193B6E7D7
:1042E0004FF0000ACEE74846FCF728FC8346D2E7A9
:1042F0006020714984160108DC1D0108E81D0108D1
:10430000F81D0108041E0108181E0108201E0108DE
:10431000281E0108000080BF629940F2BD22914230
:104320007FF415AE549D304601F0B4FA8046002863
:1043300058D116AB96E8070083E80700DDF88491B2
:10434000A8494846FCF7A2FB00285BD1609FA5491D
:104350003846FCF79BFB002854D1CDF858901797AE
:104360005F9FA0493846FCF791FB00B9189713AA44
:1043700000238DF84C3016AB00920ECB3046FFF781
:10438000BFF800284ED09DF84C60002E5AD0002374
:104390001B931C931D93DDF8309192494846FCF71E
:1043A00075FB48B94B9F8F493846FCF76FFB18B92E
:1043B000CDF86C901C97B04616ABCDF80C801BAABC
:1043C00007CA8DE807000ECB2046FEF7D3FC4FF05E
:1043D0007C512846FCF782FB00287FF447AEFEF7AD
:1043E00041FF43E680492046FEF72EFD4FF07C5109
:1043F0002846FCF773FB00287FF438AE7A48FEF7B6
:1044000085FF33E679492046FEF71EFD4FF07C51CB
:104410002846FCF763FB00287FF428AE7348FEF7BC
:1044200075FF23E672492046FEF70EFD4FF07C51E2
:104430002846FCF753FB00287FF418AE6C48FEF7C3
:1044400065FF13E66B492046FEF7FEFC4FF07C51FA
:104450002846FCF743FB00287FF408AE6548FEF7CA
:1044600055FF03E6629940F2BE2291427FF472AD9D
:104470002046FFF7EDF8F9E5629AB2F5487F7FF440
:104480006CAD3046FFF72EF800287FF4EFAD599C55
:1044900054492046FCF7FAFA78B95E9D51492846FE
:1044A000FCF7F4FA00B100252A462146304601F017
:1044B0008BFE30B1FEF7D6FED8E54F48FEF726FF5B
:1044C000D4E54E48FEF722FFD0E5629940F2213252
:1044D00091427FF445AD3046FFF704F800287FF4A1
:1044E000C5AD5D9C3F492046FCF7D0FAA0B95B9D65
:1044F0003C492846FCF7CAFA08B14FF07E55002126
:104500002846FCF7CDFA58B92146304601F07EFE28
:1045100048B1FEF7A7FEA9E53948FEF7F7FEA5E585
:1045200004F10044F0E73748FEF7F0FE9EE562999B
:1045300040F2223291427FF416AD304601F090FEF7
:1045400010B1FEF78FFE91E52F48FEF7DFFE8DE5F7
:10455000629940F2233291427FF408AD06F13800AF
:1045600002F0C5F910B1FEF77DFE7FE52748FEF7A2
:10457000CDFE7BE5629940F22A3291427FF4F9AC9C
:104580005C9C18492046FCF781FAE8B92046FCF704
:10459000D5FA85B24FF001044FF07C515F98FCF7DB
:1045A0009DFA08B94FF00004E4B24FF07C515D98D9
:1045B000FCF794FA70B122462946304601F059FEC4
:1045C00020B1FEF74FFE51E50A25E3E71048FEF75C
:1045D0009DFE4BE5304601F087FED8B1FEF742FE66
:1045E00044E500BF6020714968160108301E0108CB
:1045F000301601083C1E0108481E0108541E01081F
:104600005C1E0108681E0108741E0108841E010852
:104610008C1E01087248FEF779FE27E5629940F288
:104620002B3291427FF4A8AC3046FFF759F91DE5D3
:10463000629AB2F54B7F7FF4A2AC529C6949204646
:10464000FCF724FA38B968492046FCF78BF867492B
:10465000FCF73CF95390539C62492046FCF716FA4C
:1046600020B160495B98FCF711FAA0B95D4920467A
:10467000FCF70CFA00B1B46E5B9D5A492846FCF772
:1046800005FA00B1F56E2A462146304601F044FE97
:1046900070B14FF001084FF07C515F98FCF71EFAA3
:1046A00048B9B8F1000F0DD03046FFF719F9DDE435
:1046B0004FF00008EFE7304601F023FE10B1B8F1EB
:1046C000000FF1D14A48FEF721FECFE4629940F293
:1046D0002D3291427FF456AC5B9C42492046FCF758
:1046E000D5F918B14348FEF711FEBFE42146304624
:1046F00001F044FE18B13046FFF7F2F8B6E43E4848
:10470000FEF704FEB2E4629940F22F3291427FF448
:104710003CAC3046FEF7E6FE00287FF4A7AC569C82
:1047200030492046FCF7B2F9A0B95B9D2D492846D7
:10473000FCF7ACF908B14FF07E5500212846FCF794
:10474000AFF958B92146304601F074FD48B1FEF783
:1047500089FD8BE42948FEF7D9FD87E404F1004484
:10476000F0E72748FEF7D2FD80E4629AB2F54D7F6C
:104770007FF40EAC06F1380002F0B9F810B1FEF784
:1047800071FD73E41F48FEF7C1FD6FE4629940F2CA
:10479000353291427FF4FFAB3046FEF7A3FE00288E
:1047A0007FF464AC599D0F492846FCF76FF978B93E
:1047B0005E9C0C492046FCF769F900B100242246B2
:1047C0002946304601F000FD30B1FEF74BFD4DE4C7
:1047D0000D48FEF79BFD49E40C48FEF797FD45E4C4
:1047E000981E010860207149DB0F49400000B44366
:1047F000A01E0108AC1E0108B41E0108BC1E010861
:10480000C81E0108D41E0108E01E01088016010818
:10481000629940F23E3291427FF4C0AB619C9A496A
:104820002046FCF733F900B97C614F9C964920463D
:10483000FCF72CF938B900212046FCF731F90028A3
:1048400040F09780BC61519C8F492046FCF71EF9CF
:1048500000B97C60509C8C492046FCF717F900B9E0
:10486000BC60569C88492046FCF710F900B9FC60F2
:104870005B9C85492046FCF709F940B90021204698
:10488000FCF70EF9002876D14FF07E533B615F9C18
:104890007D492046FCF7FAF800B9FC61539C7A493F
:1048A0002046FCF7F3F800B93C625A9C7649204652
:1048B000FCF7ECF800B97C625E9C73492046FCF77B
:1048C000E5F800B9BC62529C6F492046FCF7DEF85F
:1048D00000B9FC62599C6C492046FCF7D7F800B936
:1048E0007C63579C68492046FCF7D0F800B9BC634C
:1048F0004E9C65492046FCF7C9F830B90021204696
:10490000FCF7CEF8002838D13C644D9C5E49204627
:10491000FCF7BCF828B900212046FCF7C1F870BBB1
:104920007C645C9C58492046FCF7B0F800B9BC6434
:10493000559C55492046FCF7A9F818B92046FCF7C4
:10494000FDF8F865549C50492046FCF79FF858B98B
:104950004FF001054FF07C512046FCF7BFF808B935
:104960004FF0000587F870503846FFF727F8FFF73B
:104970007DBB002466E7454B88E70024C4E700249C
:10498000CEE7629940F23F3291427FF40AAB4FF09A
:1049900001044FF07C515D98FCF7A0F808B94FF086
:1049A000000404F001013846FDF742FF3846FFF7E6
:1049B00005F8FFF75BBB629AB2F5507F7FF4F4AA6B
:1049C000549DDDF8849130494846FCF75FF830B9D2
:1049D000DDF880A12C495046FCF758F8A0B1D7F873
:1049E000D0300133C7F8D030294BC7F8C4304FF06E
:1049F0007C512846FCF772F800287FF437AB244836
:104A0000FEF784FCFFF732BB5C9C1F492046FCF795
:104A10003DF820BB2046FCF76BF80446DDF86481C6
:104A200019494046FCF732F808B1D7F834800194B0
:104A3000CDF8008053464A4631463846FDF702FF1E
:104A400004464FF07C512846FCF748F800287FF4D4
:104A50000DAB3CB13846FEF7B1FFFFF707BB4FF097
:104A6000FF34DBE7D7F8C400FEF750FCFFF7FEBACF
:104A7000629940F2413291427FF499AA3846FEF79A
:104A80009DFFFFF7F3BA00BF60207149000080BFAF
:104A9000E81E0108629940F2523291427FF48AAADC
:104AA0004FF07C515198FCF719F8002830D15D9DEA
:104AB000AA492846FBF7EAFF00282DD06E9B1C78F8
:104AC0005B9FA6493846FBF7E1FF08B16E9B5F6824
:104AD0005C9DA2492846FBF7D9FF48B36E9BDD6871
:104AE000DDF868819D494046FBF7D0FF10B16E9B11
:104AF000D3F80880CDF8048000953B462246314625
:104B00006E98FCF795FE6E98FEF716FCFFF7AEBAAE
:104B10006E98FCF7BDFECAE74FF001044FF07C51E0
:104B20002846FBF7DBFF08B94FF00004E4B2C7E703
:104B30002846FCF703F80546D2E7629940F2533263
:104B400091427FF43AAA4FF001044FF07C515C98F7
:104B5000FBF7C4FF08B94FF000041BAA04F00101E1
:104B60006E98FCF707FF20B97D48FEF7CFFBFFF7F3
:104B70007DBA1BA96E98FEF74FFEFFF777BA629ACF
:104B8000B2F5557F7FF41CAA31466E98FCF7E4FE1F
:104B900020B97448FEF7BAFBFFF768BA1BAA0021D8
:104BA0006E98FCF7E7FE28B11BA96E98FEF734FE5D
:104BB000FFF75CBA6A48FEF7A9FBFFF757BA629A9B
:104BC000B2F5617F7FF4FFA900238DF8583016A954
:104BD0005898FEF7D9FAA8B19DF85850579C5F49EC
:104BE0002046FBF753FF90B92046FBF7A7FF01468D
:104BF0001BAA284601F0D0FE58B95B48FEF786FB99
:104C0000FFF734BA5948FEF781FBFFF72FBA64214A
:104C1000EEE71BA8FEF7D4FBFFF728BA629940F233
:104C2000853291427FF4D2A900238DF8583016A91D
:104C30005898FEF7A9FA20B148495D98FBF726FF7E
:104C400020B14B48FEF762FBFFF710BA9DF85810F1
:104C50001BA801F005FE4FF001044FF07C515D9858
:104C6000FBF73CFF08B94FF00004002204F00101FB
:104C70001BA801F0FAFD18B1FEF7F4FAFFF7F6B938
:104C80003C48FEF743FBFFF7F1B9629940F28632E8
:104C900091427FF49EA900238DF8583016A95898A8
:104CA000FEF772FAE8B12D495698FBF7EFFEC0B94E
:104CB0005B9D2A492846FBF7E9FE08B14FF07E5577
:104CC000579C26492046FBF7E1FE78B92046FBF7C2
:104CD00035FF044641F28833984209D941F28834BD
:104CE00006E02548FEF712FBFFF7C0B94FF4FA744F
:104CF0009DF858101BA801F0B3FD00212846FBF7D2
:104D0000CFFE60B9569900234FF47A721BA801F0C8
:104D10000BFF40B91948FEF7F9FAFFF7A7B9569902
:104D200001F10041EFE7204601F0D6FF00211BA86A
:104D300001F0BFFD18B1FEF795FAFFF797B91048DB
:104D4000FEF7E4FAFFF792B9629940F28732914296
:104D50007FF442A9FEF774FFFFF788B9602071491C
:104D6000F01E0108F81E01080C1F0108041F0108AD
:104D7000181F0108281F0108341F0108401F0108DF
:104D8000481F0108629AB2F5627F7FF428A90023C8
:104D90008DF86C301BA95898FEF7F6F950B19DF8C4
:104DA0006C1089B9304600F00BFF40B1FEF75AFA9B
:104DB000FFF75CB99848FEF7A9FAFFF757B997488B
:104DC000FEF7A4FAFFF752B9304601F037F818B1F0
:104DD000FEF748FAFFF74AB99148FEF797FAFFF74E
:104DE00045B9629940F2893291427FF4FBA830467E
:104DF00000F002FF18B1FEF735FAFFF737B989481E
:104E0000FEF784FAFFF732B9629940F28A32914292
:104E10007FF4EBA83046FEF765FB00287FF426A957
:104E200000238DF86C301BA95898FEF7ADF928B116
:104E3000599D7D492846FBF729FE20B17B48FEF7A6
:104E400065FAFFF713B99DF86C705E9C76492046B1
:104E5000FBF71CFE00B1764C23462A463946304605
:104E600000F0F6FF18B1FEF7FDF9FFF7FFB8714843
:104E7000FEF74CFAFFF7FAB8629940F28B32914292
:104E80007FF4B6A83046FEF72DFB00287FF4EEA88D
:104E9000599D65492846FBF7F9FD80B95E9C62493A
:104EA0002046FBF7F3FD00B1614C2246294630460F
:104EB00001F02CF840B1FEF7D5F9FFF7D7B85E48FE
:104EC000FEF724FAFFF7D2B85C48FEF71FFAFFF7A7
:104ED000CDB8629AB2F5637F7FF48DA83046FEF7B5
:104EE00001FB00287FF4C2A800238DF86C301BA9B9
:104EF0005898FEF749F928B1599D4B492846FBF7C8
:104F0000C5FD20B14E48FEF701FAFFF7AFB89DF896
:104F10006C705E9C44492046FBF7B8FD00B1444CE0
:104F200023462A463946304600F0BAFF18B1FEF74C
:104F300099F9FFF79BB84348FEF7E8F9FFF796B8F1
:104F4000629940F28D3291427FF458A813AC5F9B76
:104F50000093609B619A31462046FEF75FF90DF1A0
:104F60004B0300228DF84B2002931BAB019316AB31
:104F7000009394E80E00304601F026F820B932483C
:104F8000FEF7C4F9FFF772B816AA9DF84B300293EA
:104F90001CAB93E803008DE803001B9B07CAFEF7D8
:104FA00069F9FFF763B8629940F28E3291427FF45B
:104FB00028A8FEF76DFEFFF759B8629940F28F32CC
:104FC00091427FF421A85C9D17492846FBF75EFDBE
:104FD00020B11E48FEF79AF9FFF748B84FF00104D8
:104FE0004FF07C512846FBF779FD08B94FF00004DB
:104FF00004F0010000F080F9FEF74AFEFFF736B832
:10500000629940F2913291427FF401A83046FEF756
:1050100069FEFFF72BB800BF501F0108581F010899
:10502000641F0108701F010860207149801F01087A
:105030000000A0418C1F01087C1F0108881F010887
:10504000901F0108A01F0108AC1F0108B01F010834
:10505000629AB2F5667F7EF4DDAF3046FEF742FA23
:1050600000287FF403A800238DF84C3013A958982A
:10507000FEF78AF8E0B15B9C5D492046FBF706FD30
:10508000B0B900212046FBF70BFDB0B90127569DB2
:1050900057492846FBF7FAFC00B1564D579C544936
:1050A0002046FBF7F3FC58B92046FBF747FD09E023
:1050B0005148FEF72BF9FEF7D9BF4FF0FF37E6E76F
:1050C0004FF4487016AA019200902B463A469DF87C
:1050D0004C10304600F0B4FC002838D09DF84C90BD
:1050E0002846FBF7D9F904460D469DF85830002BA9
:1050F00032D00126DDF86080DDF864A041465046DC
:10510000FBF726FA9DF868309DF8692017990E91F3
:105110000D920C93FBF7C0F9CDE90A015046FBF75D
:10512000BBF9CDE908014046FBF7B6F9CDE9060128
:105130000496CDE9024500974B46304AC0211BA892
:1051400006F040FC1BA801F055FBFEF78FBF2C4872
:10515000FEF7DCF8FEF78ABF0026CBE7629940F243
:10516000993291427EF459AF3046FEF7BBF90028E0
:105170007EF47CAF00238DF86C30589C1C4920468F
:10518000FBF784FCB8B15B9C19492046FBF77EFC19
:10519000E0B99DF86C5000212046FBF781FCD0B9A6
:1051A00001222946304600F029FCB8B13046FEF70E
:1051B00099FDFEF75BBF1BA92046FDF7E5FF002820
:1051C000E1D11048FEF7A2F8FEF750BF0E48FEF7F7
:1051D0009DF8FEF74BBF4FF0FF32E2E70B48FEF7BA
:1051E00095F8FEF743BFFEF7B1FDFEF73FBF7047EE
:1051F000602071490000A040C01F0108D41F0108B1
:10520000CC1F010838200108442001085020010863
:10521000F0B589B00024039404940594069407948F
:105220000094244B1A6B42F080021A631A6B02F04E
:1052300080020092009A01941A6B42F002021A63F3
:105240001A6B02F002020192019A02941A6B42F068
:1052500001021A631B6B03F001030293029B164DBC
:1052600022460421284602F0F8FA144F22464FF451
:105270000041384602F0F1FA042303930126049614
:105280000594069403A9284602F0E6F94FF400437A
:10529000039304960594069403A9384602F0DCF9BA
:1052A000382303930494059603A9284602F0D4F901
:1052B00009B0F0BD00380240000402400000024086
:1052C000054B1B7813B900B10120704708B90120C4
:1052D00070470020704700BF0000002008B502F0B2
:1052E000B5FA012800D0002008BD0000014B0122C2
:1052F0001A70704700000020014B1870704700BF03
:1053000000000020014B1878704700BF000000200B
:1053100000284CD02DE9F843804600242646A146BB
:10532000274618E0224D08212846FFF7D7FF3844CA
:10533000C7B210212846FFF7D1FF48445FFA80F931
:1053400020212846FFF7CAFF3044C6B2012001F0F1
:10535000C3FC0134E4B2042CE4D9022F21D901208A
:1053600088F80300B9F1020F1DD9012588F804500F
:10537000022E1AD9012488F80540FFF7A1FF88F80A
:1053800000002846FFF79CFF88F801002046FFF741
:1053900097FF88F80200074B1B7888F80630BDE8B5
:1053A000F8830020DCE70025E0E70024E3E770470E
:1053B000000402400000002072B6FEE700B595B080
:1053C0003022002108A806F074FB00230393049305
:1053D0000593069307930193214A116C41F0805184
:1053E0001164126C02F080520192019A02931D4BDB
:1053F0001A6842F480421A601B6803F480430293E7
:10540000029B012308934FF48033099302230E93E8
:105410004FF480020F92192210924FF4A872119249
:1054200012930723139308A802F0C6FF98B90F231D
:10543000039302230493002305934FF4A053069390
:105440004FF480530793052103A803F005FA20B910
:1054500015B05DF804FBFFF7AFFFFFF7ADFF00BF2E
:10546000003802400070004008B501F009FCFFF769
:10547000A5FFFFF7CDFEFCF7DFFA01F021F801F000
:1054800043F8FCE7012303FA00F0C0B2704738B5D7
:10549000B0B1054604781CB10020FFF7F3FF0446C5
:1054A0006B7823B10120FFF7EDFF0443E4B2AB7842
:1054B00023B10220FFF7E6FF0443E4B2204638BDE3
:1054C0000024FBE718B180F88010C0F884207047F2
:1054D00038B50446022810D80846094B53F8245022
:1054E0000849FBF737F801462846FBF73BF9064B1E
:1054F00053F82410FBF736F938BD0020FCE700BF55
:10550000C02001088FC2E540B420010810B584B066
:1055100004AB03E90700019C16492046FBF7D4FAC7
:10552000E0B115492046FBF7C5FAD0B1029C1149FC
:105530002046FBF7C9FAB0B10F492046FBF7BAFA8B
:1055400098B1039C0B492046FBF7BEFA78B10A4993
:105550002046FBF7AFFA10B1012000E0002004B0B4
:1055600010BD0020FBE70020F9E70020F7E700204E
:10557000F5E700BF000070C10000A04238B338B5A5
:10558000144605462AB38368042B24D143798B4201
:1055900023D10369062B22D9037F362B21D1827FA9
:1055A000C37F1B0443EA026390F8202043EA0223EE
:1055B00090F821001843FBF77DF80B49FBF7D2F870
:1055C0006B7F0BB100F100402060012004E000205F
:1055D0007047002000E0002038BD0020FCE70020DC
:1055E000FAE70020F8E700BFCDCCCC3D024628B357
:1055F0000023022B0BD8181D12F83000884202D06D
:105600000133DBB2F5E7043302EBC300704792F8D5
:1056100038308B4209D092F840308B4208D092F853
:1056200048308B4207D00020704702F138007047A5
:1056300002F14000704702F1480070477047F8B52A
:10564000E8B10D4607460024012605E000260A20A1
:1056500001F042FB0134E4B2022C11D82046FFF7DE
:1056600011FF2842F6D0201D002107EBC00001F0F9
:1056700020F90028EAD0002EE9D00126E7E700262D
:105680003046F8BD70B138B515461DB12B7831EAFA
:10569000030400D138BD2146FFF7D1FF2B78234307
:1056A0002B70F7E7704758B138B50C46054607210F
:1056B000FFF7C5FF224608212846FFF703FF38BD44
:1056C000704780B108B50B4611468446022B01D9BC
:1056D000002008BD181D00234FF47A720CEBC000A7
:1056E00001F022FAF5E7002070472DE9F84360B396
:1056F0000E461746984681460024012505E0002500
:105700000A2001F0E9FA0134E4B2022C1ED8204646
:10571000FFF7B8FE3042F6D009EB040393F9880096
:10572000FAF7CCFF3946FBF71DF80246B8F1000F37
:1057300001D100F1004221464846FFF7C2FF002890
:10574000DDD0002DDCD00125DAE700252846BDE8B4
:10575000F8830000002855D010B504460121203000
:1057600001F07EF8022104F1280001F079F803210C
:1057700004F1300001F074F8042104F1380001F064
:105780006FF8052104F1400001F06AF8062104F1E8
:10579000480001F065F81C4BE36023616361234618
:1057A00004F10C0207CAFCF737FC184BA361012374
:1057B00023770023637784F8803084F8813084F87D
:1057C000823084F88330C4F88430FF2284F8882043
:1057D00084F8892084F88A20062284F8502084F8EE
:1057E000513000226265A265E26522666266084A5F
:1057F000A2664FF07E52E26623676367A367642365
:10580000E36710BD704700BF8FC2E5C0000096433C
:105810007A30E13E00283BD0F8B50E46074600241A
:10582000012502E000250134E4B2022C0CD8201D31
:105830000022314607EBC00001F017F80028F1D034
:10584000002DF0D00125EEE70022314607F13800A7
:1058500001F00BF810B16DB9002300E000231C46E5
:105860000022314607F1400000F0FFFF20B144B9AB
:10587000002002E00123F2E7002026B130B9002326
:1058800002E00120F9E700237B77F8BD0123FBE765
:105890000020704740B190F880000138C0B2052860
:1058A0008CBF0020012070470020704770B5B0B356
:1058B00006460024012502E000250134E4B2022C52
:1058C0000BD8201D002106EBC00000F0F2FF0028DD
:1058D000F2D0002DF1D00125EFE7002106F13800CC
:1058E00000F0E7FF10B165B9002300E000231C467B
:1058F000002106F1400000F0DCFF20B124B10124BA
:1059000002E00123F3E70024002373773046FFF71A
:10591000C1FF10B1092386F88030204670BD0024F5
:10592000FBE770B570B30646FFF7B4FF60BB002419
:10593000012505E000250A2001F0CEF90134E4B28A
:10594000022C0CD8201D0022012106EBC00000F023
:105950008CFF0028EED0002DEDD00125EBE7A5B19E
:10596000072386F88130002386F8823086F883305A
:1059700001F0ACF9024601213046FFF7A3FD0123F7
:10598000737702E0002500E00025284670BD000086
:10599000092818D8DFE800F0051907090B0D0F11C9
:1059A00013150B4870470B4870470B4870470B485E
:1059B00070470B4870470B4870470B4870470B48BF
:1059C00070470B4870470B4870470B48704700BF43
:1059D000981601087420010884200108902001080D
:1059E00098200108A4200108E8160108F016010813
:1059F000AC200108F8160108642001080346C8B16C
:105A0000D2B1002A0BDB012061B14A1ED2B2022AB8
:105A100014D801390B4483F88800012070474FF0F7
:105A2000FF30F1E783F8880083F8890083F88A0063
:105A30000120704700207047002070470020704709
:105A40002DE9F04F95B01F9D002800F0A2800C4674
:105A500016461F468146002D00F09E80002900F06A
:105A60009E80032900F2A180002A00F0A18000237B
:105A70002B706B600021A960E9602B746B7404F1DA
:105A8000FF3B5FFA8BFB3846FBF714F850B91E9BBF
:105A900053B141F288331E9A9A4208D941F28833B1
:105AA0001E9304E0444FF2E74FF448731E9312A88C
:105AB000FFF72EFC12A8FFF7EAFC80462874584630
:105AC000FFF7E0FC824618EA000F02D04FF0000812
:105AD00067E00CAA4FF49671204600F05DFF804607
